:10003F000000000000000000FF1010FF000E15155B
:10004F00150800FE010200FE0102000E11110E0044
:10005F007D00000000000000000000000000000014
:10000300E4F509F50A1200E0E4F508E5082509908E
:10001300003F93FDAF0812009C0508E508C3940850
:1000230040E9050AE50AD3940A40DDE4F50A050927
:0C003300E509D3942840D1E4F50980CC05
:1000C000EF4E600F7D027CC7DCFEDDFCEF1F70F0A1
:0300D0001E80EDA2
:0100D300220A
:02006F00AD07DB
:10007100E4FB7E007480A803088006CEA2E713CEBD
:1000810013D8F8FFEDF582EF558224FF92B4D2B672
:0A009100C2B60BBB08DCD2B5C2B545
:01009B002242
:10009C00AE05AC07AF0612006FAF04A8077480085A
:1000AC008002C313D8FCF4F5807F017E001200C0DF
:0400BC007580FF222A
:0500E000C2B6C2B5220A
:030000000200D427
:0C00D400787FE4F6D8FD75810A02000375
:00000001FF
