:0400E2000208000010
:1000CE00EF4E600F7D027CC7DCFEDDFCEF1F70F093
:0300DE001E80ED94
:0100E10022FC
:10008F0020B1FD7F147E001200CE30B1FD7F147EB3
:10009F00001200CE75A0FFAF09A8077401088002F7
:1000AF00C333D8FCF452A00509E50970020508D343
:0F00BF009407E508940040C8E4F508F50980C1EE
:03000000020003F8
:0C000300787FE4F6D8FD75810902004A00
:10000F0002008FE493A3F8E493A34003F68001F278
:10001F0008DFF48029E493A3F85407240CC8C333F2
:10002F00C4540F4420C8834004F456800146F6DFC1
:10003F00E4800B01020408102040809000E2E47E6F
:10004F00019360BCA3FF543F30E509541FFEE493B6
:10005F00A360010ECF54C025E060A840B8E493A37D
:10006F00FAE493A3F8E493A3C8C582C8CAC583CAA8
:10007F00F0A3C8C582C8CAC583CADFE9DEE780BE60
:0100E6000019
:00000001FF
