:1008F70020202D20202D20200020203A20203A20C3
:020907002000CE
:1005A70012048EE518FB3395E0FA750C027D017F86
:1005B70001120885E519FB3395E0FA750C027D04F5
:1005C7007F01120885E51AFB3395E0FA750C027D69
:1005D700077F01120885E51BFB3395E0FA750C02CE
:1005E7007D017F02120885E51CFB3395E0FA750C47
:1005F700027D047F02120885E51DFB3395E0FA753D
:090607000C027D077F0202088548
:10000300E52BB4020B052AE52A75F0068485F02A50
:10001300E52B640360030200FF7418252AF806D356
:10002300E518648094E34003E4F518D3E51964808C
:10003300948C4003751901E51964027043E5187542
:10004300F0041203A2AFF0EF700DE51875F064121F
:1000530003A2AFF0EF7012AF18EF3395E0FE7C010F
:100063007D90120458ED4C700BD3E51A6480949D77
:10007300400E8009D3E51A6480949C4003751A01ED
:10008300E51964016023E5196403601DE51964053E
:100093006017E51964076011E5196408600BE51939
:1000A300640A6005E519B40C0CD3E51A6480949FC7
:1000B3004003751A01E51964046011E519640660CB
:1000C3000BE51964096005E519B40B0CD3E51A6453
:1000D30080949E4003751A01D3E51B648094974076
:1000E30003E4F51BD3E51C648094BB4003E4F51CD7
:1000F300D3E51D648094BB4003E4F51DE52B640444
:1001030060030201B37418252AF816C3E518648046
:1001130094805003751863C3E51964809481500378
:1001230075190CC3E51A648094815060E519B40213
:1001330015E51875F0041203A2AFF0EF7005751AF8
:100143001D8003751A1CE51964016023E519640316
:10015300601DE51964056017E51964076011E51969
:100163006408600BE519640A6005E519B40C0375AE
:100173001A1FE51964046011E5196406600BE5199B
:1001830064096005E519B40B03751A1EC3E51B6406
:100193008094805003751B17C3E51C6480948050C2
:1001A30003751C3BC3E51D648094805003751D3BA0
:1001B300E52AFB7A00750C027D0A7F02120885E5A9
:1001C30018FB3395E0FA750C027D017F0112088557
:1001D300E519FB3395E0FA750C027D047F011208E3
:1001E30085E51AFB3395E0FA750C027D077F011252
:1001F3000885E51BFB3395E0FA750C027D017F0250
:10020300120885E51CFB3395E0FA750C027D047F2B
:1002130002120885E51DFB3395E0FA750C027D0794
:050223007F02020885C6
:10071B001208CF1209367BFF7A0879F77D017F012A
:10072B001208447BFF7A0979007D017F021208448D
:10073B001202281206108F2BE52BB4010CE5297041
:10074B00057529018003E4F529E529146008047077
:0B075B00DF1205A780DA12000380D532
:06090900C2A58F80D2A7F9
:08090F007F027EEFDEFEDFFC3B
:0109170022BD
:0A091800C2A6120909C2A702090FC6
:10086700CFCDCFCECCCE1204037C007D0A12040379
:04087700ED2430FF3D
:0A087B00D2A6120909C2A702090F54
:1008B900AE07BE0104ED148006BE0209ED243F44D3
:0608C90080FF1209182255
:1008CF007F381209187F0C1209187F061209187F3A
:0408DF0001020918F1
:0A092200AC031208B9AF0402087B11
:060844008B088A09890AF5
:10084A001208B9E4FDAB08AA09A90A8D82758300CA
:0C085A001203C4FF600612087B0D80E949
:01086600226F
:0C0811007F0AEA24FFFDE434FFFC7E00B7
:08081D008E0D8F0E8C0F8D1063
:100825007F017E00E4FBEBC39510E50F6480F8744F
:0E0835008098500AAC0DAD0E1203F10B80E856
:010843002292
:040885008A0A8B0B45
:100889001208B9AA0CEAD39400400D120811AC0A57
:08089900AD0B1208671A80ED97
:0108A1002234
:100766001208B9C3EA64809480400B7F2B12087B81
:100776008A168B17800E7F2D12087BC3E49BF51714
:10078600E49AF516AA15EAD39400400D120811ACA6
:0907960016AD171208671A80ED78
:01079F002237
:0407A0008A218B22FD
:1007A4001208B9AA23EAD3940040297F101208132F
:1007B400AC21AD22CFCDCFCECCCE120403EF540F5B
:1007C400FEC3940AEE5004243080022437FF12083A
:0407D4007B1A80D13B
:0107D80022FE
:0407D9008A268B27BA
:1007DD001208B9AA28EAD394004028EA24FFFDE4C0
:1007ED0034FFFC7F027E0012081DAC26AD27CFCD55
:1007FD00CFCECCCE120403EF54012430FF12087B70
:03080D001A80D27C
:0108100022C5
:09092C0007181A09101110370315
:05093600C2B5C2B622AB
:050671002DFDEE3CFC34
:060676008C088D09AB07A2
:10067C00D2B5E4FD7E007401A805088005C333CE15
:10068C0033CED8F9FFEBF582EF558224FF92B4D22A
:10069C00B6C2B60DBD08DDE4FD7E007401A80508E8
:1006AC008005C333CE33CED8F9FFE5085EFEE509ED
:1006BC005F4E24FF92B4D2B6C2B60DBD08DBC2B5F4
:0106CC00220B
:0206CD00AD0777
:1006CF00E4F9430501D2B5FB7E007401A80308804D
:1006DF0005C333CE33CED8F9FFEDF582EF55822423
:1006EF00FF92B4C2B6D2B60BBB08DDE4FBD2B6C2E2
:1006FF00B630B40DA8037401088002C333D8FC428E
:0B070F00010BBB08E8C2B5C2B4AF018B
:01071A0022BC
:10022800E4FDFC7F8E120676E51875F00A1203A22B
:10023800FF3395E0FEEFC4F8540FC868FFEEC454CE
:10024800F048FEE51875F00A1203A2ADF0ED3395FB
:10025800E0FCEF7F8C120671E51975F00A1203A213
:10026800FF3395E0FEEFC4F8540FC868FFEEC4549E
:10027800F048FEE51975F00A1203A2ADF0ED3395CA
:10028800E0FCEF7F88120671E51A75F00A1203A2E6
:10029800FF3395E0FEEFC4F8540FC868FFEEC4546E
:1002A800F048FEE51A75F00A1203A2ADF0ED339599
:1002B800E0FCEF2DFDEE3CFC7F86120676E51B7513
:1002C800F00A1203A2FF3395E0FEEFC4F8540FC8FA
:1002D80068FFEEC454F048FEE51B75F00A1203A24D
:1002E800ADF0ED3395E0FCEF2DFDEE3CFC7F841284
:1002F8000676E51C75F00A1203A2FF3395E0FEEFBF
:10030800C4F8540FC868FFEEC454F048FEE51C75E5
:10031800F00A1203A2ADF0ED3395E0FCEF2DFDEEEF
:100328003CFC7F82120676E51D75F00A1203A2FFD7
:100338003395E0FEEFC4F8540FC868FFEEC454F0DC
:1003480048FEE51D75F00A1203A2ADF0ED3395E005
:10035800FCEF2DFDEE3CFC7F80120676E51E75F065
:100368000A1203A2FF3395E0FEEFC4F8540FC868E1
:10037800FFEEC454F048FEE51E75F00A1203A2AD64
:10038800F0ED3395E0FCEF2DFDEE3CFC7F8A120684
:0A039800767D807C007F8E020676E1
:10048E007F8C1206CDEFC4540F75F00AA4FEEF5404
:10049E000F2EF5187F881206CDEFC4540F75F00A93
:1004AE00A4FEEF540F2EF5197F861206CDEFC4541D
:1004BE000F75F00AA4FEEF540F2EF51A7F84120664
:1004CE00CDEFC4540F75F00AA4FEEF540F2EF51B9A
:1004DE007F821206CDEFC4540F75F00AA4FEEF54BE
:1004EE000F2EF51C7F801206CDEFC4540F75F00A47
:1004FE00A4FEEF540F2EF51D7F8A1206CDEFC454C5
:0C050E000F75F00AA4FEEF540F2EF51E2E
:01051A0022BE
:1008E300EF4E600F7D027CC7DCFEDDFCEF1F70F076
:0308F3001E80ED77
:0108F60022DF
:10061000E4F50820B1137F14FE1208E330B1FD7F2A
:10062000147E001208E375080120B0147F147E00C8
:100630001208E330B0FD7F147E001208E375080253
:1006400020B2147F147E001208E330B2FD7F147EC6
:10065000001208E375080320B3147F147E0012080B
:10066000E330B3FD7F147E001208E3750804AF0881
:010670002267
:1008A2005389F0438901758A66758CFCC28DD28C9E
:0708B200D2A9D2AFC2B922A6
:0300000002051BDB
:0C051B00787FE4F6D8FD75812B020562A4
:1003A200C2D530F707B2D563F0FF05F030E70CB2E3
:1003B200D5F4048463F0FF05F080018430D502F4A3
:0203C200042213
:1003C400BB010CE58229F582E5833AF583E02250EE
:1003D40006E92582F8E622BBFE06E92582F8E22238
:0D03E400E58229F582E5833AF583E4932252
:1003F100EF8DF0A4A8F0CF8CF0A428CE8DF0A42E20
:02040100FE22D9
:10040300BC000BBE0029EF8DF084FFADF022E4CCDD
:10041300F875F008EF2FFFEE33FEEC33FCEE9DECA6
:10042300984005FCEE9DFE0FD5F0E9E4CEFD22EDEC
:10043300F8F5F0EE8420D21CFEADF075F008EF2F36
:10044300FFED33FD4007985006D5F0F222C398FD27
:050453000FD5F0EA22C4
:10045800C2D5EC30E709B2D5E4C39DFDE49CFCEEBF
:1004680030E715B2D5E4C39FFFE49EFE120403C330
:10047800E49DFDE49CFC800312040330D507C3E42B
:060488009FFFE49EFE222E
:1005270002071BE493A3F8E493A34003F68001F2C8
:1005370008DFF48029E493A3F85407240CC8C333D5
:10054700C4540F4420C8834004F456800146F6DFA4
:10055700E4800B010204081020408090092CE47EFF
:10056700019360BCA3FF543F30E509541FFEE49399
:10057700A360010ECF54C025E060A840B8E493A360
:10058700FAE493A3F8E493A3C8C582C8CAC583CA8B
:10059700F0A3C8C582C8CAC583CADFE9DEE780BE43
:0109350000C1
:00000001FF
