:10015300E4FD7F0112008F1200F28F17E51760F79D
:100163007F647E00120173AD177F0112008F80E759
:1000F200E4F51820B1137F14FE12019030B1FD7F98
:10010200147E0012019075180120B0147F147E0035
:1001120012019030B0FD7F147E001201907518021A
:1001220020B2147F147E0012019030B2FD7F147E43
:100132000012019075180320B3147F147E0012017F
:100142009030B3FD7F147E00120190751804AF1831
:01015200228A
:1001A4000F083F065B4F666D7D077F6FF4B8DEED89
:0101B400FC4E
:10008F00EF14B4080050549000A475F003A4C58376
:10009F0025F0C583730200BC0200C00200C4020039
:1000AF00C80200CC0200D40200DC0200E4D2A4801B
:1000BF000ED2A48012D2A48016D2A4801AC2A4D2C7
:1000CF00A3D2A28016C2A4D2A3C2A2800EC2A4C27F
:1000DF00A3D2A28006C2A4C2A3C2A274082DF8E6BE
:0300EF00F5802277
:10019000EF4E600F7D027CC7DCFEDDFCEF1F70F0D0
:0301A0001E80EDD1
:0101A3002239
:0501B600007FE3DFFE05
:0101BB002221
:04017300AD07AC0622
:10017700E4FBED25E0FFEC33FEEBC39FE49E500864
:08018700B2A51201B60B80EADB
:01018F00224D
:03000000020003F8
:0C000300787FE4F6D8FD75811802004AF1
:10000F00020153E493A3F8E493A34003F68001F2B3
:10001F0008DFF48029E493A3F85407240CC8C333F2
:10002F00C4540F4420C8834004F456800146F6DFC1
:10003F00E4800B01020408102040809001A4E47EAC
:10004F00019360BCA3FF543F30E509541FFEE493B6
:10005F00A360010ECF54C025E060A840B8E493A37D
:10006F00FAE493A3F8E493A3C8C582C8CAC583CAA8
:10007F00F0A3C8C582C8CAC583CADFE9DEE780BE60
:0101B5000049
:00000001FF
