:1004280050617373776F72643A004F4B20004552E6
:060438005200202020000C
:10018C001204687BFF7A0479287D017F011203CA6F
:10019C001200038F1AE51A60F7D3940A5041C3E595
:1001AC00199404E51894005036AE1BAF1C7C007DEE
:1001BC000A1202858E1B8F1CE51A75F00A84E5F075
:1001CC00251CF51CE4351BF51B0519E519700205FA
:1001DC0018750C04AB1CAA1B7D017F0212040BE5E5
:1001EC001A640B7036E51CB43D0DE51BB403087B9B
:1001FC00FF7A04793280067BFF7A0479367D0E7F94
:10020C00011203CAE4F51BF51CF518F519750C045D
:10021C00AB1CAA1B7D017F0212040BE51A640C6057
:10022C000302019CF51BF51CF518F519F51A750C54
:10023C0004AB1CAA1B7D017F0212040B7BFF7A040A
:0C024C00793A7D0E7F011203CA02019C6A
:10045400EF4E600F7D027CC7DCFEDDFCEF1F70F009
:030464001E80ED0A
:010467002272
:06047C00C2A58F80D2A78B
:080482007F027EEFDEFEDFFCCD
:01048A00224F
:0A049700C2A612047CC2A702048270
:1003ED00CFCDCFCECCCE1202977C007D0A120297D4
:0403FD00ED2430FFBC
:0A040100D2A612047CC2A7020482F6
:10043E00AE07BE0104ED148006BE0209ED243F4452
:06044E0080FF120497225A
:100468007F381204977F0C1204977F061204977F37
:0404780001020497E2
:0A04A100AC0312043EAF0402040194
:0603CA008B088A09890A74
:1003D00012043EE4FDAB08AA09A90A8D82758300C8
:0C03E000120258FF60061204010D80E9B3
:0103EC0022EE
:0C0397007F0AEA24FFFDE434FFFC7E0036
:0803A3008E0D8F0E8C0F8D10E2
:1003AB007F017E00E4FBEBC39510E50F6480F874CE
:0E03BB008098500AAC0DAD0E1202850B80E842
:0103C9002211
:04040B008A0A8B0BC3
:10040F0012043EAA0CEAD39400400D120397AC0AD3
:08041F00AD0B1203ED1A80ED94
:0104270022B2
:1002EC0012043EC3EA64809480400B7F2B120401FD
:1002FC008A168B17800E7F2D120401C3E49BF51711
:10030C00E49AF516AA15EAD39400400D120397ACA3
:09031C0016AD171203ED1A80ED75
:0103250022B5
:040326008A1F8B207F
:10032A0012043EAA21EAD3940040297F10120399AD
:10033A00AC1FAD20CFCDCFCECCCE120297EF540F4B
:10034A00FEC3940AEE5004243080022437FF1204BC
:04035A00011A80D133
:01035E00227C
:04035F008A248B253C
:1003630012043EAA26EAD394004028EA24FFFDE4BF
:1003730034FFFC7F027E001203A3AC24AD25CFCD56
:10038300CFCECCCE120297EF54012430FF120401DA
:030393001A80D2FB
:010396002244
:10000300E4F5087590FFC2932097137F14FE120442
:10001300543097FD7F147E00120454750801209616
:10002300147F147E001204543096FD7F147E001258
:1000330004547508052095147F147E00120454306F
:1000430095FD7F147E001204547508092094147FD3
:10005300147E001204543094FD7F147E0012045465
:1000630075080D7590FFC2922097147F147E0012BD
:1000730004543097FD7F147E001204547508022047
:1000830096147F147E001204543096FD7F147E0074
:100093001204547508062095147F147E001204542C
:1000A3003095FD7F147E0012045475080A209414C1
:1000B3007F147E001204543094FD7F147E001204DA
:1000C3005475080E7590FFC2912097147F147E001B
:1000D3001204543097FD7F147E00120454750803F4
:1000E3002096147F147E001204543096FD7F147EF4
:1000F300001204547508072095147F147E0012041F
:10010300543095FD7F147E0012045475080B20941F
:10011300147F147E001204543094FD7F147E001269
:10012300045475080F7590FFC2902097147F147EB6
:10013300001204543097FD7F147E00120454750896
:10014300042096147F147E001204543096FD7F140D
:100153007E001204547508082095147F147E001243
:1001630004543095FD7F147E0012045475080C204E
:1001730094147F147E001204543094FD7F147E0087
:08018300120454750810AF08C6
:01018B002251
:0300000002048B6C
:0C048B00787FE4F6D8FD75812602018C14
:10025800BB010CE58229F582E5833AF583E022505B
:1002680006E92582F8E622BBFE06E92582F8E222A5
:0D027800E58229F582E5833AF583E49322BF
:10028500EF8DF0A4A8F0CF8CF0A428CE8DF0A42E8D
:02029500FE2247
:10029700BC000BBE0029EF8DF084FFADF022E4CC4B
:1002A700F875F008EF2FFFEE33FEEC33FCEE9DEC14
:1002B700984005FCEE9DFE0FD5F0E9E4CEFD22ED5A
:1002C700F8F5F0EE8420D21CFEADF075F008EF2FA4
:1002D700FFED33FD4007985006D5F0F222C398FD95
:0502E7000FD5F0EA2232
:00000001FF
